{
  "_format": "hh-sol-artifact-1",
  "contractName": "Airdrop",
  "sourceName": "contracts/Airdrop.sol",
  "abi": [
    {
      "inputs": [
        {
          "internalType": "contract IERC20",
          "name": "_token",
          "type": "address"
        },
        {
          "internalType": "bytes32",
          "name": "_merkleRoot",
          "type": "bytes32"
        }
      ],
      "stateMutability": "nonpayable",
      "type": "constructor"
    },
    {
      "inputs": [
        {
          "internalType": "address",
          "name": "owner",
          "type": "address"
        }
      ],
      "name": "OwnableInvalidOwner",
      "type": "error"
    },
    {
      "inputs": [
        {
          "internalType": "address",
          "name": "account",
          "type": "address"
        }
      ],
      "name": "OwnableUnauthorizedAccount",
      "type": "error"
    },
    {
      "anonymous": false,
      "inputs": [
        {
          "indexed": true,
          "internalType": "address",
          "name": "user",
          "type": "address"
        },
        {
          "indexed": false,
          "internalType": "uint256",
          "name": "amount",
          "type": "uint256"
        }
      ],
      "name": "Claimed",
      "type": "event"
    },
    {
      "anonymous": false,
      "inputs": [
        {
          "indexed": true,
          "internalType": "address",
          "name": "previousOwner",
          "type": "address"
        },
        {
          "indexed": true,
          "internalType": "address",
          "name": "newOwner",
          "type": "address"
        }
      ],
      "name": "OwnershipTransferred",
      "type": "event"
    },
    {
      "inputs": [
        {
          "internalType": "uint256",
          "name": "amount",
          "type": "uint256"
        },
        {
          "internalType": "bytes32[]",
          "name": "proof",
          "type": "bytes32[]"
        }
      ],
      "name": "claim",
      "outputs": [],
      "stateMutability": "nonpayable",
      "type": "function"
    },
    {
      "inputs": [
        {
          "internalType": "address",
          "name": "",
          "type": "address"
        }
      ],
      "name": "claimed",
      "outputs": [
        {
          "internalType": "bool",
          "name": "",
          "type": "bool"
        }
      ],
      "stateMutability": "view",
      "type": "function"
    },
    {
      "inputs": [],
      "name": "merkleRoot",
      "outputs": [
        {
          "internalType": "bytes32",
          "name": "",
          "type": "bytes32"
        }
      ],
      "stateMutability": "view",
      "type": "function"
    },
    {
      "inputs": [],
      "name": "owner",
      "outputs": [
        {
          "internalType": "address",
          "name": "",
          "type": "address"
        }
      ],
      "stateMutability": "view",
      "type": "function"
    },
    {
      "inputs": [],
      "name": "renounceOwnership",
      "outputs": [],
      "stateMutability": "nonpayable",
      "type": "function"
    },
    {
      "inputs": [
        {
          "internalType": "bytes32",
          "name": "_merkleRoot",
          "type": "bytes32"
        }
      ],
      "name": "setMerkleRoot",
      "outputs": [],
      "stateMutability": "nonpayable",
      "type": "function"
    },
    {
      "inputs": [],
      "name": "token",
      "outputs": [
        {
          "internalType": "contract IERC20",
          "name": "",
          "type": "address"
        }
      ],
      "stateMutability": "view",
      "type": "function"
    },
    {
      "inputs": [
        {
          "internalType": "address",
          "name": "newOwner",
          "type": "address"
        }
      ],
      "name": "transferOwnership",
      "outputs": [],
      "stateMutability": "nonpayable",
      "type": "function"
    },
    {
      "inputs": [],
      "name": "withdrawRemainingTokens",
      "outputs": [],
      "stateMutability": "nonpayable",
      "type": "function"
    }
  ],
  "bytecode": "0x608060405234801561001057600080fd5b506040516112d93803806112d983398181016040528101906100329190610273565b33600073ffffffffffffffffffffffffffffffffffffffff168173ffffffffffffffffffffffffffffffffffffffff16036100a55760006040517f1e4fbdf700000000000000000000000000000000000000000000000000000000815260040161009c91906102c2565b60405180910390fd5b6100b48161010460201b60201c565b5081600160006101000a81548173ffffffffffffffffffffffffffffffffffffffff021916908373ffffffffffffffffffffffffffffffffffffffff1602179055508060028190555050506102dd565b60008060009054906101000a900473ffffffffffffffffffffffffffffffffffffffff169050816000806101000a81548173ffffffffffffffffffffffffffffffffffffffff021916908373ffffffffffffffffffffffffffffffffffffffff1602179055508173ffffffffffffffffffffffffffffffffffffffff168173ffffffffffffffffffffffffffffffffffffffff167f8be0079c531659141344cd1fd0a4f28419497f9722a3daafe3b4186f6b6457e060405160405180910390a35050565b600080fd5b600073ffffffffffffffffffffffffffffffffffffffff82169050919050565b60006101f8826101cd565b9050919050565b600061020a826101ed565b9050919050565b61021a816101ff565b811461022557600080fd5b50565b60008151905061023781610211565b92915050565b6000819050919050565b6102508161023d565b811461025b57600080fd5b50565b60008151905061026d81610247565b92915050565b6000806040838503121561028a576102896101c8565b5b600061029885828601610228565b92505060206102a98582860161025e565b9150509250929050565b6102bc816101ed565b82525050565b60006020820190506102d760008301846102b3565b92915050565b610fed806102ec6000396000f3fe608060405234801561001057600080fd5b50600436106100935760003560e01c80638afbf669116100665780638afbf669146100f85780638da5cb5b14610102578063c884ef8314610120578063f2fde38b14610150578063fc0c546a1461016c57610093565b80632eb4a7ab146100985780632f52ebb7146100b6578063715018a6146100d25780637cb64759146100dc575b600080fd5b6100a061018a565b6040516100ad9190610966565b60405180910390f35b6100d060048036038101906100cb9190610a26565b610190565b005b6100da610462565b005b6100f660048036038101906100f19190610ab2565b610476565b005b610100610488565b005b61010a61065c565b6040516101179190610b20565b60405180910390f35b61013a60048036038101906101359190610b67565b610685565b6040516101479190610baf565b60405180910390f35b61016a60048036038101906101659190610b67565b6106a5565b005b61017461072b565b6040516101819190610c29565b60405180910390f35b60025481565b600360003373ffffffffffffffffffffffffffffffffffffffff1673ffffffffffffffffffffffffffffffffffffffff16815260200190815260200160002060009054906101000a900460ff161561021d576040517f08c379a000000000000000000000000000000000000000000000000000000000815260040161021490610ca1565b60405180910390fd5b60003384604051602001610232929190610d2a565b604051602081830303815290604052805190602001209050610298838380806020026020016040519081016040528093929190818152602001838360200280828437600081840152601f19601f8201169050808301925050505050505060025483610751565b6102d7576040517f08c379a00000000000000000000000000000000000000000000000000000000081526004016102ce90610da2565b60405180910390fd5b6001600360003373ffffffffffffffffffffffffffffffffffffffff1673ffffffffffffffffffffffffffffffffffffffff16815260200190815260200160002060006101000a81548160ff021916908315150217905550600160009054906101000a900473ffffffffffffffffffffffffffffffffffffffff1673ffffffffffffffffffffffffffffffffffffffff1663a9059cbb33866040518363ffffffff1660e01b815260040161038c929190610dd1565b6020604051808303816000875af11580156103ab573d6000803e3d6000fd5b505050506040513d601f19601f820116820180604052508101906103cf9190610e26565b61040e576040517f08c379a000000000000000000000000000000000000000000000000000000000815260040161040590610e9f565b60405180910390fd5b3373ffffffffffffffffffffffffffffffffffffffff167fd8138f8a3f377c5259ca548e70e4c2de94f129f5a11036a15b69513cba2b426a856040516104549190610ebf565b60405180910390a250505050565b61046a610768565b61047460006107ef565b565b61047e610768565b8060028190555050565b610490610768565b6000600160009054906101000a900473ffffffffffffffffffffffffffffffffffffffff1673ffffffffffffffffffffffffffffffffffffffff166370a08231306040518263ffffffff1660e01b81526004016104ed9190610b20565b602060405180830381865afa15801561050a573d6000803e3d6000fd5b505050506040513d601f19601f8201168201806040525081019061052e9190610eef565b905060008111610573576040517f08c379a000000000000000000000000000000000000000000000000000000000815260040161056a90610f68565b60405180910390fd5b600160009054906101000a900473ffffffffffffffffffffffffffffffffffffffff1673ffffffffffffffffffffffffffffffffffffffff1663a9059cbb6105b961065c565b836040518363ffffffff1660e01b81526004016105d7929190610dd1565b6020604051808303816000875af11580156105f6573d6000803e3d6000fd5b505050506040513d601f19601f8201168201806040525081019061061a9190610e26565b610659576040517f08c379a000000000000000000000000000000000000000000000000000000000815260040161065090610e9f565b60405180910390fd5b50565b60008060009054906101000a900473ffffffffffffffffffffffffffffffffffffffff16905090565b60036020528060005260406000206000915054906101000a900460ff1681565b6106ad610768565b600073ffffffffffffffffffffffffffffffffffffffff168173ffffffffffffffffffffffffffffffffffffffff160361071f5760006040517f1e4fbdf70000000000000000000000000000000000000000000000000000000081526004016107169190610b20565b60405180910390fd5b610728816107ef565b50565b600160009054906101000a900473ffffffffffffffffffffffffffffffffffffffff1681565b60008261075e85846108b3565b1490509392505050565b610770610903565b73ffffffffffffffffffffffffffffffffffffffff1661078e61065c565b73ffffffffffffffffffffffffffffffffffffffff16146107ed576107b1610903565b6040517f118cdaa70000000000000000000000000000000000000000000000000000000081526004016107e49190610b20565b60405180910390fd5b565b60008060009054906101000a900473ffffffffffffffffffffffffffffffffffffffff169050816000806101000a81548173ffffffffffffffffffffffffffffffffffffffff021916908373ffffffffffffffffffffffffffffffffffffffff1602179055508173ffffffffffffffffffffffffffffffffffffffff168173ffffffffffffffffffffffffffffffffffffffff167f8be0079c531659141344cd1fd0a4f28419497f9722a3daafe3b4186f6b6457e060405160405180910390a35050565b60008082905060005b84518110156108f8576108e9828683815181106108dc576108db610f88565b5b602002602001015161090b565b915080806001019150506108bc565b508091505092915050565b600033905090565b60008183106109235761091e8284610936565b61092e565b61092d8383610936565b5b905092915050565b600082600052816020526040600020905092915050565b6000819050919050565b6109608161094d565b82525050565b600060208201905061097b6000830184610957565b92915050565b600080fd5b600080fd5b6000819050919050565b61099e8161098b565b81146109a957600080fd5b50565b6000813590506109bb81610995565b92915050565b600080fd5b600080fd5b600080fd5b60008083601f8401126109e6576109e56109c1565b5b8235905067ffffffffffffffff811115610a0357610a026109c6565b5b602083019150836020820283011115610a1f57610a1e6109cb565b5b9250929050565b600080600060408486031215610a3f57610a3e610981565b5b6000610a4d868287016109ac565b935050602084013567ffffffffffffffff811115610a6e57610a6d610986565b5b610a7a868287016109d0565b92509250509250925092565b610a8f8161094d565b8114610a9a57600080fd5b50565b600081359050610aac81610a86565b92915050565b600060208284031215610ac857610ac7610981565b5b6000610ad684828501610a9d565b91505092915050565b600073ffffffffffffffffffffffffffffffffffffffff82169050919050565b6000610b0a82610adf565b9050919050565b610b1a81610aff565b82525050565b6000602082019050610b356000830184610b11565b92915050565b610b4481610aff565b8114610b4f57600080fd5b50565b600081359050610b6181610b3b565b92915050565b600060208284031215610b7d57610b7c610981565b5b6000610b8b84828501610b52565b91505092915050565b60008115159050919050565b610ba981610b94565b82525050565b6000602082019050610bc46000830184610ba0565b92915050565b6000819050919050565b6000610bef610bea610be584610adf565b610bca565b610adf565b9050919050565b6000610c0182610bd4565b9050919050565b6000610c1382610bf6565b9050919050565b610c2381610c08565b82525050565b6000602082019050610c3e6000830184610c1a565b92915050565b600082825260208201905092915050565b7f416c726561647920636c61696d65640000000000000000000000000000000000600082015250565b6000610c8b600f83610c44565b9150610c9682610c55565b602082019050919050565b60006020820190508181036000830152610cba81610c7e565b9050919050565b60008160601b9050919050565b6000610cd982610cc1565b9050919050565b6000610ceb82610cce565b9050919050565b610d03610cfe82610aff565b610ce0565b82525050565b6000819050919050565b610d24610d1f8261098b565b610d09565b82525050565b6000610d368285610cf2565b601482019150610d468284610d13565b6020820191508190509392505050565b7f496e76616c69642070726f6f6600000000000000000000000000000000000000600082015250565b6000610d8c600d83610c44565b9150610d9782610d56565b602082019050919050565b60006020820190508181036000830152610dbb81610d7f565b9050919050565b610dcb8161098b565b82525050565b6000604082019050610de66000830185610b11565b610df36020830184610dc2565b9392505050565b610e0381610b94565b8114610e0e57600080fd5b50565b600081519050610e2081610dfa565b92915050565b600060208284031215610e3c57610e3b610981565b5b6000610e4a84828501610e11565b91505092915050565b7f5472616e73666572206661696c65640000000000000000000000000000000000600082015250565b6000610e89600f83610c44565b9150610e9482610e53565b602082019050919050565b60006020820190508181036000830152610eb881610e7c565b9050919050565b6000602082019050610ed46000830184610dc2565b92915050565b600081519050610ee981610995565b92915050565b600060208284031215610f0557610f04610981565b5b6000610f1384828501610eda565b91505092915050565b7f4e6f20746f6b656e7320746f2077697468647261770000000000000000000000600082015250565b6000610f52601583610c44565b9150610f5d82610f1c565b602082019050919050565b60006020820190508181036000830152610f8181610f45565b9050919050565b7f4e487b7100000000000000000000000000000000000000000000000000000000600052603260045260246000fdfea26469706673582212203f087a6b99bde05c320e592e707c8320461e86d330127d848e8b83d40480462564736f6c634300081a0033",
  "linkReferences": {},
  "deployedLinkReferences": {}
}